{
  "abi": [
    {
      "inputs": [
        {
          "internalType": "string",
          "name": "name_",
          "type": "string"
        },
        {
          "internalType": "string",
          "name": "symbol_",
          "type": "string"
        }
      ],
      "stateMutability": "nonpayable",
      "type": "constructor"
    },
    {
      "inputs": [],
      "name": "AlreadyClaimed",
      "type": "error"
    },
    {
      "inputs": [],
      "name": "ApprovalCallerNotOwnerNorApproved",
      "type": "error"
    },
    {
      "inputs": [],
      "name": "ApprovalQueryForNonexistentToken",
      "type": "error"
    },
    {
      "inputs": [],
      "name": "BalanceQueryForZeroAddress",
      "type": "error"
    },
    {
      "inputs": [],
      "name": "ChallengeFinished",
      "type": "error"
    },
    {
      "inputs": [],
      "name": "IncorrectFightId",
      "type": "error"
    },
    {
      "inputs": [],
      "name": "IncorrectStats",
      "type": "error"
    },
    {
      "inputs": [],
      "name": "InvalidTournamentSize",
      "type": "error"
    },
    {
      "inputs": [],
      "name": "MaxSupplyReached",
      "type": "error"
    },
    {
      "inputs": [],
      "name": "MintERC2309QuantityExceedsLimit",
      "type": "error"
    },
    {
      "inputs": [],
      "name": "MintLimitReached",
      "type": "error"
    },
    {
      "inputs": [],
      "name": "MintToZeroAddress",
      "type": "error"
    },
    {
      "inputs": [],
      "name": "MintZeroQuantity",
      "type": "error"
    },
    {
      "inputs": [],
      "name": "NoPrize",
      "type": "error"
    },
    {
      "inputs": [],
      "name": "NotFighterOwner",
      "type": "error"
    },
    {
      "inputs": [],
      "name": "NotOwner",
      "type": "error"
    },
    {
      "inputs": [],
      "name": "NotWinner",
      "type": "error"
    },
    {
      "inputs": [],
      "name": "OwnerQueryForNonexistentToken",
      "type": "error"
    },
    {
      "inputs": [],
      "name": "OwnershipNotInitializedForExtraData",
      "type": "error"
    },
    {
      "inputs": [],
      "name": "PriceTooLow",
      "type": "error"
    },
    {
      "inputs": [
        {
          "internalType": "string",
          "name": "expected",
          "type": "string"
        }
      ],
      "name": "SaleNotStarted",
      "type": "error"
    },
    {
      "inputs": [],
      "name": "StrategyNotSet",
      "type": "error"
    },
    {
      "inputs": [],
      "name": "TournamentFull",
      "type": "error"
    },
    {
      "inputs": [],
      "name": "TournamentInactive",
      "type": "error"
    },
    {
      "inputs": [],
      "name": "TournamentOngoing",
      "type": "error"
    },
    {
      "inputs": [],
      "name": "TransferCallerNotOwnerNorApproved",
      "type": "error"
    },
    {
      "inputs": [],
      "name": "TransferFromIncorrectOwner",
      "type": "error"
    },
    {
      "inputs": [],
      "name": "TransferToNonERC721ReceiverImplementer",
      "type": "error"
    },
    {
      "inputs": [],
      "name": "TransferToZeroAddress",
      "type": "error"
    },
    {
      "inputs": [],
      "name": "URIQueryForNonexistentToken",
      "type": "error"
    },
    {
      "anonymous": false,
      "inputs": [
        {
          "indexed": true,
          "internalType": "address",
          "name": "owner",
          "type": "address"
        },
        {
          "indexed": true,
          "internalType": "address",
          "name": "approved",
          "type": "address"
        },
        {
          "indexed": true,
          "internalType": "uint256",
          "name": "tokenId",
          "type": "uint256"
        }
      ],
      "name": "Approval",
      "type": "event"
    },
    {
      "anonymous": false,
      "inputs": [
        {
          "indexed": true,
          "internalType": "address",
          "name": "owner",
          "type": "address"
        },
        {
          "indexed": true,
          "internalType": "address",
          "name": "operator",
          "type": "address"
        },
        {
          "indexed": false,
          "internalType": "bool",
          "name": "approved",
          "type": "bool"
        }
      ],
      "name": "ApprovalForAll",
      "type": "event"
    },
    {
      "anonymous": false,
      "inputs": [
        {
          "indexed": true,
          "internalType": "uint256",
          "name": "fromTokenId",
          "type": "uint256"
        },
        {
          "indexed": false,
          "internalType": "uint256",
          "name": "toTokenId",
          "type": "uint256"
        },
        {
          "indexed": true,
          "internalType": "address",
          "name": "from",
          "type": "address"
        },
        {
          "indexed": true,
          "internalType": "address",
          "name": "to",
          "type": "address"
        }
      ],
      "name": "ConsecutiveTransfer",
      "type": "event"
    },
    {
      "anonymous": false,
      "inputs": [
        {
          "indexed": false,
          "internalType": "address",
          "name": "receiver",
          "type": "address"
        }
      ],
      "name": "FundsWithdrawn",
      "type": "event"
    },
    {
      "anonymous": false,
      "inputs": [
        {
          "indexed": false,
          "internalType": "uint256",
          "name": "prevMax",
          "type": "uint256"
        },
        {
          "indexed": false,
          "internalType": "uint256",
          "name": "newMax",
          "type": "uint256"
        }
      ],
      "name": "MaxPublicMintUpdated",
      "type": "event"
    },
    {
      "anonymous": false,
      "inputs": [
        {
          "indexed": true,
          "internalType": "address",
          "name": "previousOwner",
          "type": "address"
        },
        {
          "indexed": true,
          "internalType": "address",
          "name": "newOwner",
          "type": "address"
        }
      ],
      "name": "OwnershipTransferred",
      "type": "event"
    },
    {
      "anonymous": false,
      "inputs": [
        {
          "indexed": false,
          "internalType": "uint256",
          "name": "prevPrice",
          "type": "uint256"
        },
        {
          "indexed": false,
          "internalType": "uint256",
          "name": "newPrice",
          "type": "uint256"
        }
      ],
      "name": "PublicPriceUpdated",
      "type": "event"
    },
    {
      "anonymous": false,
      "inputs": [
        {
          "indexed": false,
          "internalType": "bool",
          "name": "state",
          "type": "bool"
        }
      ],
      "name": "SaleStateChanged",
      "type": "event"
    },
    {
      "anonymous": false,
      "inputs": [
        {
          "indexed": true,
          "internalType": "address",
          "name": "from",
          "type": "address"
        },
        {
          "indexed": true,
          "internalType": "address",
          "name": "to",
          "type": "address"
        },
        {
          "indexed": true,
          "internalType": "uint256",
          "name": "tokenId",
          "type": "uint256"
        }
      ],
      "name": "Transfer",
      "type": "event"
    },
    {
      "inputs": [
        {
          "internalType": "address",
          "name": "to",
          "type": "address"
        },
        {
          "internalType": "uint256",
          "name": "tokenId",
          "type": "uint256"
        }
      ],
      "name": "approve",
      "outputs": [],
      "stateMutability": "nonpayable",
      "type": "function"
    },
    {
      "inputs": [
        {
          "internalType": "address",
          "name": "owner",
          "type": "address"
        }
      ],
      "name": "balanceOf",
      "outputs": [
        {
          "internalType": "uint256",
          "name": "",
          "type": "uint256"
        }
      ],
      "stateMutability": "view",
      "type": "function"
    },
    {
      "inputs": [
        {
          "internalType": "uint16",
          "name": "fighterId",
          "type": "uint16"
        },
        {
          "internalType": "uint16",
          "name": "opponentId",
          "type": "uint16"
        },
        {
          "internalType": "address",
          "name": "prize",
          "type": "address"
        },
        {
          "internalType": "uint256",
          "name": "amountOrId",
          "type": "uint256"
        }
      ],
      "name": "challengeAFighter",
      "outputs": [
        {
          "internalType": "uint256",
          "name": "tournamentId",
          "type": "uint256"
        }
      ],
      "stateMutability": "payable",
      "type": "function"
    },
    {
      "inputs": [
        {
          "internalType": "uint256",
          "name": "size",
          "type": "uint256"
        },
        {
          "internalType": "address",
          "name": "prize",
          "type": "address"
        },
        {
          "internalType": "uint256",
          "name": "prizeType",
          "type": "uint256"
        }
      ],
      "name": "createTournament",
      "outputs": [],
      "stateMutability": "nonpayable",
      "type": "function"
    },
    {
      "inputs": [],
      "name": "defaultUri",
      "outputs": [
        {
          "internalType": "string",
          "name": "",
          "type": "string"
        }
      ],
      "stateMutability": "view",
      "type": "function"
    },
    {
      "inputs": [
        {
          "internalType": "uint256",
          "name": "challengeId",
          "type": "uint256"
        }
      ],
      "name": "fightChallenge",
      "outputs": [],
      "stateMutability": "nonpayable",
      "type": "function"
    },
    {
      "inputs": [
        {
          "internalType": "uint256",
          "name": "tokenId",
          "type": "uint256"
        }
      ],
      "name": "getApproved",
      "outputs": [
        {
          "internalType": "address",
          "name": "",
          "type": "address"
        }
      ],
      "stateMutability": "view",
      "type": "function"
    },
    {
      "inputs": [
        {
          "internalType": "uint256",
          "name": "moveset",
          "type": "uint256"
        }
      ],
      "name": "getFighterData",
      "outputs": [
        {
          "components": [
            {
              "internalType": "uint8",
              "name": "lowPunchPower",
              "type": "uint8"
            },
            {
              "internalType": "uint8",
              "name": "lowKickPower",
              "type": "uint8"
            },
            {
              "internalType": "uint8",
              "name": "midPunchPower",
              "type": "uint8"
            },
            {
              "internalType": "uint8",
              "name": "midKickPower",
              "type": "uint8"
            },
            {
              "internalType": "uint8",
              "name": "highPunchPower",
              "type": "uint8"
            },
            {
              "internalType": "uint8",
              "name": "highKickPower",
              "type": "uint8"
            },
            {
              "internalType": "uint8",
              "name": "energy",
              "type": "uint8"
            },
            {
              "internalType": "uint8",
              "name": "health",
              "type": "uint8"
            },
            {
              "internalType": "uint8",
              "name": "maxEnergy",
              "type": "uint8"
            },
            {
              "internalType": "uint8",
              "name": "maxHealth",
              "type": "uint8"
            }
          ],
          "internalType": "struct FighterData",
          "name": "",
          "type": "tuple"
        }
      ],
      "stateMutability": "pure",
      "type": "function"
    },
    {
      "inputs": [
        {
          "internalType": "uint256",
          "name": "history",
          "type": "uint256"
        }
      ],
      "name": "getMatchHistory",
      "outputs": [
        {
          "internalType": "uint8[]",
          "name": "matchHistory",
          "type": "uint8[]"
        }
      ],
      "stateMutability": "pure",
      "type": "function"
    },
    {
      "inputs": [
        {
          "internalType": "uint256",
          "name": "",
          "type": "uint256"
        }
      ],
      "name": "idToFighter",
      "outputs": [
        {
          "internalType": "string",
          "name": "name",
          "type": "string"
        },
        {
          "internalType": "address",
          "name": "strategy",
          "type": "address"
        },
        {
          "internalType": "string",
          "name": "imageUri",
          "type": "string"
        }
      ],
      "stateMutability": "view",
      "type": "function"
    },
    {
      "inputs": [],
      "name": "isActive",
      "outputs": [
        {
          "internalType": "bool",
          "name": "",
          "type": "bool"
        }
      ],
      "stateMutability": "view",
      "type": "function"
    },
    {
      "inputs": [
        {
          "internalType": "address",
          "name": "owner",
          "type": "address"
        },
        {
          "internalType": "address",
          "name": "operator",
          "type": "address"
        }
      ],
      "name": "isApprovedForAll",
      "outputs": [
        {
          "internalType": "bool",
          "name": "",
          "type": "bool"
        }
      ],
      "stateMutability": "view",
      "type": "function"
    },
    {
      "inputs": [
        {
          "internalType": "uint256",
          "name": "tournamentId",
          "type": "uint256"
        },
        {
          "internalType": "uint16",
          "name": "fighterId",
          "type": "uint16"
        }
      ],
      "name": "joinTournament",
      "outputs": [],
      "stateMutability": "nonpayable",
      "type": "function"
    },
    {
      "inputs": [
        {
          "internalType": "uint256",
          "name": "",
          "type": "uint256"
        }
      ],
      "name": "lastRoundEnd",
      "outputs": [
        {
          "internalType": "uint256",
          "name": "",
          "type": "uint256"
        }
      ],
      "stateMutability": "view",
      "type": "function"
    },
    {
      "inputs": [],
      "name": "maxStats",
      "outputs": [
        {
          "internalType": "uint256",
          "name": "",
          "type": "uint256"
        }
      ],
      "stateMutability": "view",
      "type": "function"
    },
    {
      "inputs": [],
      "name": "maxSupply",
      "outputs": [
        {
          "internalType": "uint256",
          "name": "",
          "type": "uint256"
        }
      ],
      "stateMutability": "view",
      "type": "function"
    },
    {
      "inputs": [
        {
          "internalType": "uint256",
          "name": "quantity",
          "type": "uint256"
        }
      ],
      "name": "mint",
      "outputs": [],
      "stateMutability": "payable",
      "type": "function"
    },
    {
      "inputs": [
        {
          "internalType": "uint256",
          "name": "id",
          "type": "uint256"
        },
        {
          "internalType": "string",
          "name": "name",
          "type": "string"
        },
        {
          "internalType": "address",
          "name": "strategy",
          "type": "address"
        },
        {
          "internalType": "string",
          "name": "imageURI",
          "type": "string"
        }
      ],
      "name": "modifyFighter",
      "outputs": [],
      "stateMutability": "nonpayable",
      "type": "function"
    },
    {
      "inputs": [],
      "name": "name",
      "outputs": [
        {
          "internalType": "string",
          "name": "",
          "type": "string"
        }
      ],
      "stateMutability": "view",
      "type": "function"
    },
    {
      "inputs": [],
      "name": "owner",
      "outputs": [
        {
          "internalType": "address",
          "name": "",
          "type": "address"
        }
      ],
      "stateMutability": "view",
      "type": "function"
    },
    {
      "inputs": [
        {
          "internalType": "uint256",
          "name": "tokenId",
          "type": "uint256"
        }
      ],
      "name": "ownerOf",
      "outputs": [
        {
          "internalType": "address",
          "name": "",
          "type": "address"
        }
      ],
      "stateMutability": "view",
      "type": "function"
    },
    {
      "inputs": [],
      "name": "price",
      "outputs": [
        {
          "internalType": "uint256",
          "name": "",
          "type": "uint256"
        }
      ],
      "stateMutability": "view",
      "type": "function"
    },
    {
      "inputs": [],
      "name": "publicMintLimit",
      "outputs": [
        {
          "internalType": "uint256",
          "name": "",
          "type": "uint256"
        }
      ],
      "stateMutability": "view",
      "type": "function"
    },
    {
      "inputs": [],
      "name": "renounceOwnership",
      "outputs": [],
      "stateMutability": "nonpayable",
      "type": "function"
    },
    {
      "inputs": [
        {
          "internalType": "address",
          "name": "from",
          "type": "address"
        },
        {
          "internalType": "address",
          "name": "to",
          "type": "address"
        },
        {
          "internalType": "uint256",
          "name": "tokenId",
          "type": "uint256"
        }
      ],
      "name": "safeTransferFrom",
      "outputs": [],
      "stateMutability": "nonpayable",
      "type": "function"
    },
    {
      "inputs": [
        {
          "internalType": "address",
          "name": "from",
          "type": "address"
        },
        {
          "internalType": "address",
          "name": "to",
          "type": "address"
        },
        {
          "internalType": "uint256",
          "name": "tokenId",
          "type": "uint256"
        },
        {
          "internalType": "bytes",
          "name": "_data",
          "type": "bytes"
        }
      ],
      "name": "safeTransferFrom",
      "outputs": [],
      "stateMutability": "nonpayable",
      "type": "function"
    },
    {
      "inputs": [
        {
          "internalType": "address",
          "name": "operator",
          "type": "address"
        },
        {
          "internalType": "bool",
          "name": "approved",
          "type": "bool"
        }
      ],
      "name": "setApprovalForAll",
      "outputs": [],
      "stateMutability": "nonpayable",
      "type": "function"
    },
    {
      "inputs": [
        {
          "internalType": "uint256",
          "name": "newMax",
          "type": "uint256"
        }
      ],
      "name": "setMaxPublicMint",
      "outputs": [],
      "stateMutability": "nonpayable",
      "type": "function"
    },
    {
      "inputs": [
        {
          "internalType": "uint256",
          "name": "_price",
          "type": "uint256"
        }
      ],
      "name": "setPublicPrice",
      "outputs": [],
      "stateMutability": "nonpayable",
      "type": "function"
    },
    {
      "inputs": [
        {
          "internalType": "uint256",
          "name": "tournamentId",
          "type": "uint256"
        }
      ],
      "name": "startNextFight",
      "outputs": [],
      "stateMutability": "nonpayable",
      "type": "function"
    },
    {
      "inputs": [
        {
          "internalType": "bytes4",
          "name": "interfaceId",
          "type": "bytes4"
        }
      ],
      "name": "supportsInterface",
      "outputs": [
        {
          "internalType": "bool",
          "name": "",
          "type": "bool"
        }
      ],
      "stateMutability": "view",
      "type": "function"
    },
    {
      "inputs": [],
      "name": "symbol",
      "outputs": [
        {
          "internalType": "string",
          "name": "",
          "type": "string"
        }
      ],
      "stateMutability": "view",
      "type": "function"
    },
    {
      "inputs": [],
      "name": "toggleSale",
      "outputs": [],
      "stateMutability": "nonpayable",
      "type": "function"
    },
    {
      "inputs": [
        {
          "internalType": "uint256",
          "name": "tokenId",
          "type": "uint256"
        }
      ],
      "name": "tokenURI",
      "outputs": [
        {
          "internalType": "string",
          "name": "",
          "type": "string"
        }
      ],
      "stateMutability": "view",
      "type": "function"
    },
    {
      "inputs": [],
      "name": "totalSupply",
      "outputs": [
        {
          "internalType": "uint256",
          "name": "",
          "type": "uint256"
        }
      ],
      "stateMutability": "view",
      "type": "function"
    },
    {
      "inputs": [
        {
          "internalType": "uint256",
          "name": "",
          "type": "uint256"
        },
        {
          "internalType": "uint256",
          "name": "",
          "type": "uint256"
        }
      ],
      "name": "tournamentMatches",
      "outputs": [
        {
          "internalType": "uint16",
          "name": "firstFighterId",
          "type": "uint16"
        },
        {
          "internalType": "uint16",
          "name": "secondFighterId",
          "type": "uint16"
        },
        {
          "internalType": "uint16",
          "name": "winner",
          "type": "uint16"
        },
        {
          "internalType": "uint256",
          "name": "firstMoveset",
          "type": "uint256"
        },
        {
          "internalType": "uint256",
          "name": "secondMoveset",
          "type": "uint256"
        },
        {
          "internalType": "uint256",
          "name": "history",
          "type": "uint256"
        }
      ],
      "stateMutability": "view",
      "type": "function"
    },
    {
      "inputs": [
        {
          "internalType": "uint256",
          "name": "",
          "type": "uint256"
        },
        {
          "internalType": "uint256",
          "name": "",
          "type": "uint256"
        },
        {
          "internalType": "uint256",
          "name": "",
          "type": "uint256"
        }
      ],
      "name": "tournamentRoundWinners",
      "outputs": [
        {
          "internalType": "uint256",
          "name": "",
          "type": "uint256"
        }
      ],
      "stateMutability": "view",
      "type": "function"
    },
    {
      "inputs": [
        {
          "internalType": "uint256",
          "name": "",
          "type": "uint256"
        }
      ],
      "name": "tournaments",
      "outputs": [
        {
          "internalType": "bool",
          "name": "ordered",
          "type": "bool"
        },
        {
          "internalType": "bool",
          "name": "prize",
          "type": "bool"
        },
        {
          "internalType": "bool",
          "name": "isERC721",
          "type": "bool"
        },
        {
          "internalType": "bool",
          "name": "isERC20",
          "type": "bool"
        },
        {
          "internalType": "uint8",
          "name": "maxEntrants",
          "type": "uint8"
        },
        {
          "internalType": "uint8",
          "name": "round",
          "type": "uint8"
        },
        {
          "internalType": "uint8",
          "name": "matches",
          "type": "uint8"
        },
        {
          "internalType": "uint8",
          "name": "index",
          "type": "uint8"
        },
        {
          "internalType": "bool",
          "name": "prizeClaimed",
          "type": "bool"
        },
        {
          "internalType": "uint16",
          "name": "winner",
          "type": "uint16"
        },
        {
          "internalType": "enum Arena.Status",
          "name": "status",
          "type": "uint8"
        },
        {
          "internalType": "address",
          "name": "prizeAddress",
          "type": "address"
        },
        {
          "internalType": "uint256",
          "name": "prizeAmount",
          "type": "uint256"
        }
      ],
      "stateMutability": "view",
      "type": "function"
    },
    {
      "inputs": [
        {
          "internalType": "address",
          "name": "from",
          "type": "address"
        },
        {
          "internalType": "address",
          "name": "to",
          "type": "address"
        },
        {
          "internalType": "uint256",
          "name": "tokenId",
          "type": "uint256"
        }
      ],
      "name": "transferFrom",
      "outputs": [],
      "stateMutability": "nonpayable",
      "type": "function"
    },
    {
      "inputs": [
        {
          "internalType": "address",
          "name": "newOwner",
          "type": "address"
        }
      ],
      "name": "transferOwnership",
      "outputs": [],
      "stateMutability": "nonpayable",
      "type": "function"
    },
    {
      "inputs": [],
      "name": "withdraw",
      "outputs": [],
      "stateMutability": "nonpayable",
      "type": "function"
    },
    {
      "inputs": [
        {
          "internalType": "uint256",
          "name": "tournamentId",
          "type": "uint256"
        }
      ],
      "name": "withdrawPrize",
      "outputs": [],
      "stateMutability": "nonpayable",
      "type": "function"
    }
  ],
  "bytecode": {
    "object": "0x608060405234620001fa5762004d9b803803806200001d8162000216565b9283398101604082820312620001fa5781516001600160401b0390818111620001fa57826200004e9185016200024b565b9260209283820151838111620001fa576200006a92016200024b565b918351918211620001ea575b6200008e8262000088600254620002df565b6200031c565b80601f83116001146200015957508190620000c7946000926200014d575b50508160011b916000199060031b1c191617600255620003ce565b620000d26001600055565b620000dd33620004d2565b620000e86001600955565b620000f966038d7ea4c68000600b55565b62000105612710600c55565b620001106003600d55565b6200011b6064600e55565b62000126600a601355565b620001316040601455565b6200013d61a8c0601555565b60405161487a9081620005218239f35b015190503880620000ac565b60026000529193601f1985167f405787fa12a823e0f2b7631cc41b3ba8828b3321ca811111fa75cd3aa3bb5ace936000905b828210620001d1575050916001939186620000c7979410620001b7575b505050811b01600255620003ce565b015160001960f88460031b161c19169055388080620001a8565b806001869782949787015181550196019401906200018b565b620001f4620001ff565b62000076565b600080fd5b50634e487b7160e01b600052604160045260246000fd5b6040519190601f01601f191682016001600160401b038111838210176200023c57604052565b62000246620001ff565b604052565b81601f82011215620001fa578051906001600160401b038211620002cf575b60209062000281601f8401601f1916830162000216565b93838552828483010111620001fa5782906000905b83838310620002b657505011620002ac57505090565b6000918301015290565b8193508281939201015182828801015201839162000296565b620002d9620001ff565b6200026a565b90600182811c9216801562000311575b6020831014620002fb57565b634e487b7160e01b600052602260045260246000fd5b91607f1691620002ef565b601f811162000329575050565b6000906002825260208220906020601f850160051c830194106200036a575b601f0160051c01915b8281106200035e57505050565b81815560010162000351565b909250829062000348565b601f811162000382575050565b6000906003825260208220906020601f850160051c83019410620003c3575b601f0160051c01915b828110620003b757505050565b818155600101620003aa565b9092508290620003a1565b80519091906001600160401b038111620004c2575b620003fb81620003f5600354620002df565b62000375565b602080601f83116001146200043a57508192936000926200042e575b50508160011b916000199060031b1c191617600355565b01519050388062000417565b6003600052601f198316949091907fc2575a0e9e593c00f959f8c92f12db2869c3395a3b0502d05e2516446f71f85b926000905b878210620004a95750508360019596106200048f575b505050811b01600355565b015160001960f88460031b161c1916905538808062000484565b806001859682949686015181550195019301906200046e565b620004cc620001ff565b620003e3565b600880546001600160a01b039283166001600160a01b031982168117909255604051919216907f8be0079c531659141344cd1fd0a4f28419497f9722a3daafe3b4186f6b6457e090600090a356fe60806040526004361015610013575b600080fd5b60003560e01c806301ffc9a71461035b57806306fdde03146103525780630781429714610349578063081812fc14610340578063095ea7b31461033757806318160ddd1461032e57806322f3e2d41461032557806323b872dd1461031c578063270ab52c14610313578063381a9fce1461030a5780633ccfd60b146103015780633fbf9201146102f857806342842e0e146102ef5780634ce8cd4c146102e65780635480e562146102dd5780635d65d957146102d45780636352211e146102cb57806370a08231146102c2578063715018a6146102b95780637503e1b7146102b05780637d8966e4146102a75780637ff3fc051461029e5780638ae34383146102955780638da5cb5b1461028c57806395d89b4114610283578063a035b1fe1461027a578063a0712d6814610271578063a22cb46514610268578063af5a0c301461025f578063b88d4fde14610256578063bb485b881461024d578063bd49644014610244578063be252dac1461023b578063c20eec7b14610232578063c627525514610229578063c72cc05514610220578063c87b56dd14610217578063cade4be01461020e578063d2d99fec14610205578063d5abeb01146101fc578063e985e9c5146101f35763f2fde38b146101eb57600080fd5b61000e6129c1565b5061000e612963565b5061000e612944565b5061000e61289c565b5061000e612813565b5061000e6123ac565b5061000e61237f565b5061000e61231e565b5061000e6120f5565b5061000e611d96565b5061000e611d77565b5061000e611d58565b5061000e611cf8565b5061000e6119bd565b5061000e61191c565b5061000e61174d565b5061000e61172e565b5061000e611686565b5061000e61165c565b5061000e611508565b5061000e611491565b5061000e61140f565b5061000e611385565b5061000e61126c565b5061000e611210565b5061000e6111e0565b5061000e610fe0565b5061000e610f21565b5061000e610ddd565b5061000e610d76565b5061000e610ce7565b5061000e610c2f565b5061000e610a81565b5061000e610853565b5061000e610839565b5061000e6107e0565b5061000e6107b8565b5061000e6106d5565b5061000e610680565b5061000e61057d565b5061000e61045e565b5061000e610376565b6001600160e01b031981160361000e57565b503461000e57602036600319011261000e57602060043561039681610364565b63ffffffff60e01b166301ffc9a760e01b81149081156103d4575b81156103c3575b506040519015158152f35b635b5e139f60e01b149050386103b8565b6380ac58cd60e01b811491506103b1565b600091031261000e57565b918091926000905b828210610410575011610409575050565b6000910152565b915080602091830151818601520182916103f8565b9060209161043e815180928185528580860191016103f0565b601f01601f1916010190565b90602061045b928181520190610425565b90565b503461000e5760008060031936011261053857604051908060025461048281612682565b8085529160019180831690811561051757506001146104bc575b6104b8856104ac81870382610976565b6040519182918261044a565b0390f35b9250600283527f405787fa12a823e0f2b7631cc41b3ba8828b3321ca811111fa75cd3aa3bb5ace5b8284106104ff5750505081016020016104ac826104b861049c565b805460208587018101919091529093019281016104e4565b60ff1916602087015250506040840192506104ac91508390506104b861049c565b80fd5b602435906001600160a01b038216820361000e57565b600435906001600160a01b038216820361000e57565b604435906001600160a01b038216820361000e57565b503461000e57606036600319011261000e5760043561059a61053b565b81158015610674575b6106625761065d906105be6105b9601254613543565b601255565b6106336105c9610997565b916105f460ff60009687865287602087015287604087015287606087015216608085019060ff169052565b8460a08401528460c08401528460e08401528461010084015284610120840152610622610140840160019052565b6001600160a01b0316610160830152565b8261018082015260606101a08201526106586012546000526016602052604060002090565b6131cb565b604051f35b60405163237b3f5b60e21b8152600490fd5b506007821615156105a3565b503461000e57602036600319011261000e5760043561069e81612b0a565b156106c3576000526006602052602060018060a01b0360406000205416604051908152f35b6040516333d1c03960e21b8152600490fd5b503461000e57604036600319011261000e576106ef610551565b6001600160a01b03906024358261070582612a92565b16803303610774575b60009361074884610729856000526006602052604060002090565b80546001600160a01b0319166001600160a01b03909216919091179055565b6040519316907f8c5be1e5ebec7d5bd14f71427d1e84f3dd0314c0f7b2291e5b200ac8c7c3b9258585a4f35b600081815260076020908152604080832033845290915290206107a19061079d905b5460ff1690565b1590565b1561070e576040516367d9dca160e11b8152600490fd5b503461000e57600036600319011261000e576000546001546040519103600019018152602090f35b503461000e57600036600319011261000e57602060ff600a54166040519015158152f35b606090600319011261000e576001600160a01b0390600435828116810361000e5791602435908116810361000e579060443590565b503461000e5761085161084b36610804565b91612b45565b005b503461000e57602036600319011261000e57600435610870612ee5565b80156108b957600d8054908290556040805191825260208201929092527fc52c23dee1b7f0823689f6f47171c163e8c110111c483c4b85c5956d6a29098491819081015b0390a1005b60405162461bcd60e51b815260206004820152600d60248201526c43616e2774206265207a65726f60981b6044820152606490fd5b50634e487b7160e01b600052604160045260246000fd5b6001600160401b03811161091857604052565b6109206108ee565b604052565b606081019081106001600160401b0382111761091857604052565b602081019081106001600160401b0382111761091857604052565b604081019081106001600160401b0382111761091857604052565b90601f801991011681019081106001600160401b0382111761091857604052565b604051906101c082018281106001600160401b0382111761091857604052565b6040519061014082018281106001600160401b0382111761091857604052565b6040519060c082018281106001600160401b0382111761091857604052565b60405190610a0382610925565b565b6020906001600160401b038111610a22575b601f01601f19160190565b610a2a6108ee565b610a17565b929192610a3b82610a05565b91610a496040519384610976565b82948184528183011161000e578281602093846000960137010152565b9080601f8301121561000e5781602061045b93359101610a2f565b503461000e57608036600319011261000e576004356001600160401b0360243581811161000e57610ab6903690600401610a66565b610abe610567565b9060643583811161000e57610ad7903690600401610a66565b916001600160a01b03610ae986612a92565b163303610c1d5760009485526020936011855260408620948351918211610c10575b610b1f82610b198854612682565b88613f0b565b80601f8311600114610b9c57508190610b71948892610b91575b50508160011b916000199060031b1c19161784555b6001840180546001600160a01b0319166001600160a01b03909216919091179055565b8051610b7e575b82604051f35b6002610b8a9201613f50565b3880610b78565b015190503880610b39565b919293601f198416610bb388600052602060002090565b9389905b828210610bf8575050916001939185610b7197969410610bdf575b505050811b018455610b4e565b015160001960f88460031b161c19169055388080610bd2565b80600186978294978701518155019601940190610bb7565b610c186108ee565b610b0b565b6040516330cd747160e01b8152600490fd5b503461000e5760008060031936011261053857610c4a612ee5565b60018060a01b03818080836008541647604051915af1610c68612de3565b5015610ca25760207f07c755342db70f3cd9b012463bcfdc68a1009115e2f9910e5562f81d73e5c2259160085416604051908152a1604051f35b5080fd5b50634e487b7160e01b600052603260045260246000fd5b8054821015610cda575b60005260206000209060021b0190600090565b610ce2610ca6565b610cc7565b503461000e57604036600319011261000e576024356004356000526017602052604060002090815481101561000e57610d1f91610cbd565b508054600182015460028301546003909301546040805161ffff8086168252601086901c81166020808401919091529590951c909416908401526060830191909152608082019290925260a081019190915260c090f35b503461000e57610851610d8836610804565b9060405192610d9684610940565b60008452612d21565b6020604081830192828152606051809452019160809160005b828110610dc6575050505090565b835160ff1685529381019392810192600101610db8565b503461000e57602036600319011261000e5760043560005b600a8110610e0a57604051806104b881610d9f565b8060ff610e19600293856145dc565b606051831015610e89575b1660808260051b01526001198111610e7c575b610e60610e4760018301856145dc565b610e58610e5384613543565b612f93565b9060ff169052565b81198111610e6f575b01610df5565b610e77612ffc565b610e69565b610e84612ffc565b610e37565b610e91610ca6565b610e24565b815160ff16815261014081019291610a03919060208181015160ff169083015260408181015160ff169083015260608181015160ff169083015260808181015160ff169083015260a08181015160ff169083015260c08181015160ff169083015260e08181015160ff16908301526101008181015160ff16908301526101209081015160ff16910152565b503461000e57602036600319011261000e576104b8600435610f416136d0565b50610f4a6136d0565b50610fd4610f566109b7565b60ff8381168252600884901c8116602080840191909152601085901c8216604080850191909152601886901c831660608501529085901c82166080840152602885901c821660a0840152603085901c821660c0840152603885901c821660e084015284901c811661010083015260489390931c909216610120830152565b60405191829182610e96565b503461000e57602036600319011261000e576004356012548110156111ce57611013816000526016602052604060002090565b9081549161ffff92838160481c1615908115916111b4575b506111a2576002810161104e611040826133ec565b905461ffff9160031b1c1690565b61105a6110408361340f565b938582169061107a61106e61106e84612a92565b6001600160a01b031690565b6001600160a01b031633141580611185575b61117357866110bd85826108519a6110b56110406110af6110406111259c6133ec565b9461340f565b1691166138a5565b9391949092958615611151575b50906110e3611106926000526017602052604060002090565b9516986110fb6110f16109d7565b61ffff9098168852565b61ffff166020870152565b61ffff881660408601525b6060850152608084015260a0830152613466565b80546bffffff000000000000000000191660489290921b61ffff60481b1691909117600360581b179055565b8291965061116a6110e391611106948d16908787613dcb565b969192506110ca565b604051635472132f60e11b8152600490fd5b503361119b61106e61106e61106e8b8b16612a92565b141561108c565b6040516301d11cb960e01b8152600490fd5b6003915060581c60ff166111c7816112ce565b143861102b565b604051631483b66760e21b8152600490fd5b503461000e57602036600319011261000e5760206001600160a01b03611207600435612a92565b16604051908152f35b503461000e57602036600319011261000e576001600160a01b03611232610551565b16801561125a57600052600560205260206001600160401b0360406000205416604051908152f35b6040516323d3ad8160e21b8152600490fd5b503461000e5760008060031936011261053857611287612ee5565b600880546001600160a01b031981169091556040519082906001600160a01b03167f8be0079c531659141344cd1fd0a4f28419497f9722a3daafe3b4186f6b6457e08284a3f35b600511156112d857565b634e487b7160e01b600052602160045260246000fd5b9060058210156112d85752565b9a98969492909d9c9b99979593916101a08c019e15158c52151560208c0152151560408b0152151560608a0152608089016113379160ff169052565b60ff1660a088015260ff1660c087015260ff1660e0860152151561010085015261ffff16610120840152610140830161136f916112ee565b6001600160a01b03166101608201526101800152565b503461000e57602036600319011261000e576004356000526016602052604060002060018154910154906104b860405192839260ff8160601c91818160581c169161ffff8260481c1691818160401c1691808260381c1691818160301c1691808260281c1691818160201c1691808260181c16918d828260101c1692808360081c169216906112fb565b503461000e57600036600319011261000e57611429612ee5565b7fe333f8a36ee86e754548af2d6f50c73ff0d501e22e6c784662123dbbe493c6026020600a5460ff8082161516809160ff191617600a556040519015158152a1005b8054821015611484575b60005260206000200190600090565b61148c610ca6565b611475565b503461000e57606036600319011261000e57604435600060043581526018602052604081206024358252602052604081209081548310156105385760206114d8848461146b565b90546040519160031b1c8152f35b6024359061ffff8216820361000e57565b6004359061ffff8216820361000e57565b503461000e5760408060031936011261000e576004908135916115296114e6565b9261153d61106e61106e61ffff8716612a92565b6001600160a01b0390339082160361164c5761157a600161156c8761ffff166000526011602052604060002090565b01546001600160a01b031690565b161561163d5760125481101561162e5761159e906000526016602052604060002090565b90815490600160ff8360581c166115b4816112ce565b0361162057600283019160ff83549160201c161461162057506115d96000948261356f565b805482546115ee9060201c60ff165b60ff1690565b146115f857505051f35b815460ff60581b1916600160591b1790915561161d9061161781613e52565b906130ce565b51f35b8351633b6d517f60e01b8152fd5b509051631483b66760e21b8152fd5b509051630fb1a74560e41b8152fd5b8351635472132f60e11b81528390fd5b503461000e57600036600319011261000e576008546040516001600160a01b039091168152602090f35b503461000e576000806003193601126105385760405190806003546116aa81612682565b8085529160019180831690811561051757506001146116d3576104b8856104ac81870382610976565b9250600383527fc2575a0e9e593c00f959f8c92f12db2869c3395a3b0502d05e2516446f71f85b5b8284106117165750505081016020016104ac826104b861049c565b805460208587018101919091529093019281016116fb565b503461000e57600036600319011261000e576020600b54604051908152f35b5060208060031936011261000e5760048035906002600954146118ce57600260095560009283549161178a84600194600019908654900301613563565b600c54106118bf576117a161079d600a5460ff1690565b611885573360009081526010602052604090206117c090859054613563565b600d5410611876576117d4600b5485613098565b341061186757503360009081526010602052604090206117f5848254613563565b9055835b838110611815578461180b8533614168565b61065d6001600955565b82906118616118226109f6565b61182a612d0e565b81528785820152611839612d0e565b604082015261185c61184c848a54613563565b6000526011602052604060002090565b61402c565b016117f9565b604051636dddf41160e11b8152fd5b60405163303b682f60e01b8152fd5b6118bb9060405191829162e776fb60e51b835282016060906020815260066020820152657075626c696360d01b60408201520190565b0390fd5b60405163d05cb60960e01b8152fd5b60405162461bcd60e51b8152908101839052601f60248201527f5265656e7472616e637947756172643a207265656e7472616e742063616c6c006044820152606490fd5b8015150361000e57565b503461000e57604036600319011261000e57611936610551565b6024359061194382611912565b336000526007602052611981826119708360406000209060018060a01b0316600052602052604060002090565b9060ff801983541691151516179055565b60405191151582526001600160a01b03169033907f17307eab39ab6107e8899845ad3d59bd9653f200f220920489ca2b5937696c3190602090a3005b503461000e57602036600319011261000e576004356119e6816000526016602052604060002090565b805460029060581c60ff166119fa816112ce565b03611ce657611a08826137a4565b611a1961106e61106e849694612a92565b6001600160a01b031633141580611ccb575b80611ca2575b61117357611adc84611a4683610851976138a5565b93918315611c8a575b611aa69394611a68896000526017602052604060002090565b92611a9761ffff8089169a611a8b82611a7f6109d7565b9916899061ffff169052565b1661ffff166020870152565b61ffff89166040860152611111565b611ad7611abd856000526018602052604060002090565b865460281c60ff165b60ff16600052602052604060002090565b6135bf565b611b13611af6611af1855460ff9060301c1690565b613604565b845466ff000000000000191660309190911b60ff60301b16178455565b825460281c60ff1660ff8116158080611c62575b15611be2575050611b61611b43611af1855460ff9060281c1690565b845465ff0000000000191660289190911b65ff000000000016178455565b825460ff611b766115e8828460201c16613654565b9160301c1614611bc2575b50611b9742916000526019602052604060002090565b558054611ba99060381c60ff16613616565b60ff60381b82549160381b169060ff60381b1916179055565b825461ffff60481b191660489190911b61ffff60481b1617825538611b81565b1580611c06575b611bf4575b50611b61565b611b43611c0091613604565b38611bee565b50611c3181611c1f856000526018602052604060002090565b9060ff16600052602052604060002090565b54611c5c611c55611c4c866000526018602052604060002090565b611ac685613654565b5460011c90565b14611be9565b50611c7b82611c1f866000526018602052604060002090565b54600286015460011c14611b27565b611aa69350611c9b87848785613dcb565b9350611a4f565b50611cc4611cba836000526019602052604060002090565b5460155490613563565b4211611a31565b5033611cdf61106e61106e61106e85612a92565b1415611a2b565b60405163358284df60e21b8152600490fd5b503461000e57608036600319011261000e57611d12610551565b611d1a61053b565b606435916001600160401b03831161000e573660238401121561000e57611d4e610851933690602481600401359101610a2f565b9160443591612d21565b503461000e57600036600319011261000e576020600d54604051908152f35b503461000e57600036600319011261000e576020600e54604051908152f35b50608036600319011261000e57611dab6114f7565b611db36114e6565b611dbb610567565b9160643590611dd361106e61106e61ffff8416612a92565b6001600160a01b03939033908516036111735760009081948616801515806120ed575b611f5a575b5090611ef06104b896611e34611f10969594611e2b611e18612f78565b96611e2288612faf565b9061ffff169052565b611e2286612fc9565b611ea560125497611e476105b98a613013565b84158581611f53575b8015611f4a575b60009015611f4457506001975b8691611f3c575b60009115611f2057611e9c9150955b611e93611e85610997565b6001815299151560208b0152565b15156040890152565b15156060870152565b60026080860152600060a0860152600060c0860152600060e086015260006101008601526000610120860152611edf610140860160029052565b6001600160a01b0316610160850152565b6101808301526101a0820152610658836000526016602052604060002090565b6040519081529081906020820190565b503415611f335750611e9c345b95611e7a565b611e9c90611f2d565b829150611e6b565b97611e64565b50341515611e57565b5081611e50565b6040516301ffc9a760e01b81526380ac58cd60e01b6004820152602096509094939291908681602481895afa8391816120ce575b506120c6575b506000826120c1575060015b9582156120315750843b1561000e576040516323b872dd60e01b8152336004820152306024820152604481018590526104b897611f1096611ef0939192611e3492916000908290606490829084905af18015612024575b61200b575b505b9394959650509650611dfb565b8061201861201e92610905565b806103e5565b38611ffc565b61202c612dd6565b611ff7565b6040516323b872dd60e01b8152336004820152306024820152604481018690526104b898611f1097611ef0949193611e349390918290829060649082906000905af180156120b4575b612086575b5050611ffe565b816120a592903d106120ad575b61209d8183610976565b810190612f3d565b50388061207f565b503d612093565b6120bc612dd6565b61207a565b611fa0565b915038611f94565b6120e6919250883d8a116120ad5761209d8183610976565b9038611f8e565b503415611df6565b503461000e57602036600319011261000e57600461211e81356000526016602052604060002090565b805490600360ff8360581c16612133816112ce565b0361230d57604091600160ff82851c161515146122fe576001600160a01b03612163604883901c61ffff16612a92565b1633036122ef5760081c60ff161580156122e3575b6122d557805460ff60401b1916600160401b178155805460ff8160101c1660001461221c575060016121b161106e61106e845460601c90565b91015492813b1561000e5782516323b872dd60e01b815230918101918252336020830152604082019490945260009391849183919082908490829060600103925af1801561220f575b612202575051f35b8061201861161d92610905565b612217612dd6565b6121fa565b6000939060181c60ff16156122b55760209082600161224561106e61106e61227a975460601c90565b91015485516323b872dd60e01b8152309381019384523360208501526040840191909152938492839188918391606090910190565b03925af180156122a8575b61228d575051f35b6122a49060203d81116120ad5761209d8183610976565b5051f35b6122b0612dd6565b612285565b50828080600161161d940154855190335af16122cf612de3565b50613692565b505163273b4b7760e01b8152fd5b50600181015415612178565b5050516330c6392160e11b8152fd5b505051630c8d9eab60e31b8152fd5b60405163aa089ecf60e01b81528390fd5b503461000e57602036600319011261000e577fbc8f3035e148903aa088dcdda931a67ac941cee1644a9d6eee32a0c712e755d560043561235c612ee5565b600b5481600b556108b46040519283928360209093929193604081019481520152565b503461000e57602036600319011261000e5760043560005260196020526020604060002054604051908152f35b503461000e57602036600319011261000e576004356123cd61079d82612b0a565b612670576123ed6123e8826000526011602052604060002090565b6142bf565b6020810180519192916001600160a01b03161561265e575161244e906004906000906124239061106e906001600160a01b031681565b6040516306fdde0360e01b815292839182905afa908115612651575b600091612630575b5091614521565b9060408351930180515115156000146126215751905b604051607b60f81b6020820152938493602185017f226e616d65223a2022436f64654669676874657273202300000000000000000081526017016124a7916143a2565b61088b60f21b81526002017f226465736372697074696f6e223a2022426174746c6573206f6e20636861696e815261088b60f21b60208201526022017f2261747472696275746573223a205b7b2274726169745f74797065223a20224e81526f30b6b2911610113b30b63ab2911d101160811b602082015260300161252b916143a2565b7f22207d2c207b2274726169745f74797065223a20225374726174656779222c20815269113b30b63ab2911d101160b11b6020820152602a0161256d916143a2565b6408881f574b60da1b8152600501691134b6b0b3b2911d101160b11b8152600a01612597916143a2565b601160f91b8152600101607d60f81b81526001010390601f199182810182526125c09082610976565b6125c990614446565b6040517f646174613a6170706c69636174696f6e2f6a736f6e3b6261736536342c000000602082015291908290603d8201612603916143a2565b0390810182526126139082610976565b6040516104b881928261044a565b5061262a6126bc565b90612464565b61264b913d8091833e6126438183610976565b810190614344565b38612447565b612659612dd6565b61243f565b5061244e61266a61431c565b91614521565b604051630a14c4b560e41b8152600490fd5b90600182811c921680156126b2575b602083101461269c57565b634e487b7160e01b600052602260045260246000fd5b91607f1691612691565b60405190600082600f54916126d083612682565b8083529260019081811690811561275657506001146126f7575b50610a0392500383610976565b600f600090815291507f8d1108e10bcb7c27dddfc02ed9d693a074039d026cf4ea4240b40f7d581ac8025b84831061273b5750610a039350508101602001386126ea565b81935090816020925483858a01015201910190918592612722565b94505050505060ff19166020830152610a038260408101386126ea565b906040519182600082549261278784612682565b9081845260019485811690816000146127f457506001146127b1575b5050610a0392500383610976565b9093915060005260209081600020936000915b8183106127dc575050610a03935082010138806127a3565b855488840185015294850194879450918301916127c4565b9550505050505060ff19166020830152610a03826040810138806127a3565b503461000e57602036600319011261000e57600435600052601160205261287260406000206104b861284482612773565b9161285e600260018060a01b036001840154169201612773565b604051948594606086526060860190610425565b9160208501528382036040850152610425565b50634e487b7160e01b600052600060045260246000fd5b503461000e57600080600319360112610538576040519080600f546128c081612682565b8085529160019180831690811561051757506001146128e9576104b8856104ac81870382610976565b9250600f83527f8d1108e10bcb7c27dddfc02ed9d693a074039d026cf4ea4240b40f7d581ac8025b82841061292c5750505081016020016104ac826104b861049c565b80546020858701810191909152909301928101612911565b503461000e57600036600319011261000e576020600c54604051908152f35b503461000e57604036600319011261000e57602060ff6129b5612984610551565b61298c61053b565b6001600160a01b0391821660009081526007865260408082209290931681526020919091522090565b54166040519015158152f35b503461000e57602036600319011261000e576129db610551565b6129e3612ee5565b6001600160a01b03908116908115612a3e5760009160085491816bffffffffffffffffffffffff60a01b84161760085560405192167f8be0079c531659141344cd1fd0a4f28419497f9722a3daafe3b4186f6b6457e08484a3f35b60405162461bcd60e51b815260206004820152602660248201527f4f776e61626c653a206e6577206f776e657220697320746865207a65726f206160448201526564647265737360d01b6064820152608490fd5b6000818060011115612ab1575b604051636f96cda160e11b8152600490fd5b8154811015612a9f5781526004906020918083526040928383205494600160e01b861615612ae157505050612a9f565b93929190935b8515612af557505050505090565b60001901808352818552838320549550612ae7565b80600111159081612b39575b81612b1f575090565b90506000526004602052600160e01b604060002054161590565b60005481109150612b16565b90612b4f83612a92565b6001600160a01b0383811692828216849003612cfd57600086815260066020526040902080549092612b906001600160a01b03881633908114908414171590565b612ca9575b8216958615612c9757612be893612bc692612c8d575b506001600160a01b0316600090815260056020526040902090565b80546000190190556001600160a01b0316600090815260056020526040902090565b80546001019055600160e11b804260a01b851717612c10866000526004602052604060002090565b55811615612c43575b507fddf252ad1be2c89b69c2b068fc378daa952ba7f163c4a11628f55a4df523b3ef6000604051a4565b60018401612c5b816000526004602052604060002090565b5415612c68575b50612c19565b6000548114612c6257612c85906000526004602052604060002090565b553880612c62565b6000905538612bab565b604051633a954ecd60e21b8152600490fd5b612ce661079d61079633612ccf8b60018060a01b03166000526007602052604060002090565b9060018060a01b0316600052602052604060002090565b15612b9557604051632ce44b5f60e11b8152600490fd5b60405162a1148160e81b8152600490fd5b60405190612d1b82610940565b60008252565b929190612d2f828286612b45565b803b612d3c575b50505050565b612d4593612ebc565b15612d535738808080612d36565b6040516368d2bf6b60e11b8152600490fd5b9081602091031261000e575161045b81610364565b61045b939260809260018060a01b031682526000602083015260408201528160608201520190610425565b6001600160a01b03918216815291166020820152604081019190915260806060820181905261045b92910190610425565b506040513d6000823e3d90fd5b3d15612e0e573d90612df482610a05565b91612e026040519384610976565b82523d6000602084013e565b606090565b612e3c60209160009394604051948580948193630a85bd0160e11b998a84523360048501612d7a565b03926001600160a01b03165af160009181612e8c575b50612e7e57612e5f612de3565b80519081612e79576040516368d2bf6b60e11b8152600490fd5b602001fd5b6001600160e01b0319161490565b612eae91925060203d8111612eb5575b612ea68183610976565b810190612d65565b9038612e52565b503d612e9c565b92602091612e3c936000604051809681958294630a85bd0160e11b9a8b85523360048601612da5565b6008546001600160a01b03163303612ef957565b606460405162461bcd60e51b815260206004820152602060248201527f4f776e61626c653a2063616c6c6572206973206e6f7420746865206f776e65726044820152fd5b9081602091031261000e575161045b81611912565b6020906001600160401b038111612f6b575b60051b0190565b612f736108ee565b612f64565b60405190612f8582610925565b600282526040366020840137565b608090606051811015612fa75760051b0190565b612f73610ca6565b602090805115612fbd570190565b612fc5610ca6565b0190565b604090805160011015612fbd570190565b6020918151811015612fef575b60051b010190565b612ff7610ca6565b612fe7565b50634e487b7160e01b600052601160045260246000fd5b6001906000198114613023570190565b612fc5612ffc565b9060058110156112d857815460ff60581b191660589190911b60ff60581b16179055565b806000190460021181151516613066575b60011b90565b61306e612ffc565b613060565b6001600160fe1b03811160011661308b575b60021b90565b613093612ffc565b613085565b80600019048211811515166130ab570290565b6130b3612ffc565b0290565b8181106130c2575050565b600081556001016130b7565b90805191600160401b83116131be575b805483825580841061316c575b50613100602080930191600052602060002090565b91600080925b85841061311557505050505050565b82816131466131286002945161ffff1690565b885461ffff918216600388901b90811b92901b918216911916178855565b01910192601e841161315d575b6001019290613106565b60019094019360009350613153565b61319d90826000526020600020600f80870160041c820192601e8860011b16806131a3575b500160041c01906130b7565b386130eb565b600019908186019182549160200360031b1c16905538613191565b6131c66108ee565b6130de565b60026101a0610a03936131f36131e18251151590565b859060ff801983541691151516179055565b6132196132036020830151151590565b855461ff00191690151560081b61ff0016178555565b6132416132296040830151151590565b855462ff0000191690151560101b62ff000016178555565b61326b6132516060830151151590565b855463ff000000191690151560181b63ff00000016178555565b61329861327c608083015160ff1690565b855464ff00000000191660209190911b64ff0000000016178555565b6132c76132a960a083015160ff1690565b855465ff0000000000191660289190911b65ff000000000016178555565b6132f56132d860c083015160ff1690565b855466ff000000000000191660309190911b60ff60301b16178555565b61332461330660e083015160ff1690565b855467ff00000000000000191660389190911b60ff60381b16178555565b613354613335610100830151151590565b855460ff60401b191690151560401b68ff000000000000000016178555565b61338361336761012083015161ffff1690565b855461ffff60481b191660489190911b61ffff60481b16178555565b61339b610140820151613395816112ce565b8561302b565b6101608101516133d8906001600160a01b031685546bffffffffffffffffffffffff1660609190911b6bffffffffffffffffffffffff1916178555565b6101808101516001850155015191016130ce565b805415613402575b600052602060002090600090565b61340a610ca6565b6133f4565b805460011015613428575b600052602060002090600290565b613430610ca6565b61341a565b9190918054831015613459575b600052601e60206000208360041c019260011b1690565b613461610ca6565b613442565b60a0613489600392805490600160401b821015613509575b600182018155610cbd565b9390936134fc575b80518454602083015163ffffffff1990911661ffff9283161760109190911b63ffff00001617855560408201516134e19116855465ffff00000000191660209190911b65ffff0000000016178555565b60608101516001850155608081015160028501550151910155565b613504612885565b613491565b6135116108ee565b61347e565b50634e487b7160e01b600052601260045260246000fd5b8115613537570690565b61353f613516565b0690565b6001906001198111613023570190565b6002906002198111613023570190565b81198111613023570190565b90613592610a0392805490600160401b8210156135b2575b600182018155613435565b90919082549060031b9161ffff9283811b93849216901b16911916179055565b6135ba6108ee565b613587565b80546135dd91600160401b8210156135f7575b60018201815561146b565b819291549060031b600019811b9283911b16911916179055565b6135ff6108ee565b6135d2565b60ff6001911660fe8111613023570190565b60ff6002911660fd8111613023570190565b60ff8091169116908160ff038111613023570190565b8115613648570490565b613650613516565b0490565b60ff1660018110613667575b6000190190565b61366f612ffc565b613660565b60ff9182169116818110613686570390565b61368e612ffc565b0390565b1561369957565b60405162461bcd60e51b815260206004820152600f60248201526e151c985b9cd9995c8819985a5b1959608a1b6044820152606490fd5b6040519061014082018281106001600160401b0382111761372e575b604052816101206000918281528260208201528260408201528260608201528260808201528260a08201528260c08201528260e0820152826101008201520152565b6137366108ee565b6136ec565b60018110613667576000190190565b818110613686570390565b9060405191828154918282526020928383019160005283600020936000905b82821061378a57505050610a0392500383610976565b855484526001958601958895509381019390910190613774565b90816000526016602052604060002080549260ff8460381c169360ff8160281c16918215600014613805575050506137f2611040600261045b93016137ff6137f96137f26110408985613435565b61ffff1690565b96613543565b90613435565b613879935061385e929591613827613858926000526018602052604060002090565b6138308861373b565b60005260205260ff61384e6138486040600020613755565b9861304f565b9160201c1661363e565b9061352d565b9261387361386c8583612fda565b5194613543565b90612fda565b5190565b9081602091031261000e575190565b9081602091031261000e575160ff8116810361000e5790565b6000926000906138c761106e600161156c866000526011602052604060002090565b946138e461106e600161156c886000526011602052604060002090565b604051638798d45160e01b8082529197909490916001600160a01b0391906020876004818688165afa968715613cfd575b600097613cdc575b5060405190815286906020816004818e88165afa908115613ccf575b600091613ca0575b50809760ff8160481c169060ff8160401c16908260ff8260381c1603613c8e5760ff829160301c1603613c8e5760649161397a91613563565b03613c8e5760ff8160481c169060ff8160401c16908260ff8260381c1603613c8e5760ff829160301c1603613c8e576064916139b591613563565b03613c8e5793600096959690600095600097601354925b8385141580613c86575b15613c7657508c60018516613b40575060405163071dbd3360e41b8152600f60501b19909116600960501b17600482018190529190602081806024810103818a8c1662030d40fa60009181613b1f575b50613b17575b5060405163071dbd3360e41b8152600f60501b19909116605089901b60ff60501b16176004820181905294906020818f818a816024810103921662030d40fa60009181613ae6575b50613ade575b5087613a9f92613a998b938760ff8516610ff08760041b16179161460b565b96613d0a565b9190988260ff613aaf8c96613013565b9b60381c16613ac757508b5b915b92909993916139cc565b60381c60ff16613ad7578a613abb565b6000613abb565b985087613a7a565b613b0991925060203d602011613b10575b613b018183610976565b81019061388c565b9038613a74565b503d613af7565b975038613a2c565b613b3991925060203d602011613b1057613b018183610976565b9038613a26565b60405163071dbd3360e41b808252600f60501b19909416600960501b1760048201819052939694959492916020908290818b816024810103921662030d40fa60009181613c55575b50613c4d575b50604051958652600f60501b1916605089901b60ff60501b161760048601819052946020816024818a8c16614e20fa60009181613c2c575b50613c24575b5087613beb92613a998b938660ff8516610ff08760041b16179161460b565b9290988360ff613bfb8c95613013565b9b60381c16613c0d57508a5b91613abd565b60381c60ff16613c1d578b613c07565b6000613c07565b985087613bcc565b613c4691925060203d602011613b1057613b018183610976565b9038613bc6565b985038613b8e565b613c6f91925060203d602011613b1057613b018183610976565b9038613b88565b9c50989750985050509650505050565b5080156139d6565b604051630baee7a560e31b8152600490fd5b613cc2915060203d602011613cc8575b613cba8183610976565b81019061387d565b38613941565b503d613cb0565b613cd7612dd6565b613939565b613cf691975060203d602011613cc857613cba8183610976565b953861391d565b613d05612dd6565b613915565b909293916000918260ff831660068111600014613da85750613d2c83836146e4565b965b60ff81166006811115613d835750613d4681886146e4565b965b60ff8316613d6f575b50505060ff8316613d6157505050565b613d6c939550614785565b91565b613d7a939750614785565b93388080613d51565b613d8f919550876145dc565b93613da2613d9c86614655565b886146a1565b96613d48565b613db39150826145dc565b613dc5613dbf82614655565b836146a1565b96613d2e565b60ff809194939460381c169160381c1690818114600014613e485750506032613e2c604051602081019085825284604082015242606082015260608152608081018181106001600160401b03821117613e3b575b6040525190206064900690565b1015613e36575090565b905090565b613e436108ee565b613e1f565b1115613e36575090565b9060405160208101903360601b825242603482015260348152613e7481610925565b519020825480918115613efe575b06613e8c82612f52565b613e996040519182610976565b828152601f19613ea884612f52565b0136602083013780946000925b848410613ec3575050505050565b613ef281613eed613ee3611040613edd8a613ef89761352d565b87613435565b611e228888612fda565b613543565b93613013565b92613eb5565b613f06613516565b613e82565b9190601f8111613f1a57505050565b610a03926000526020600020906020601f840160051c83019310613f46575b601f0160051c01906130b7565b9091508190613f39565b91909182516001600160401b03811161401f575b613f7881613f728454612682565b84613f0b565b602080601f8311600114613fb4575081929394600092613fa9575b50508160011b916000199060031b1c1916179055565b015190503880613f93565b90601f19831695613fca85600052602060002090565b926000905b88821061400757505083600195969710613fee575b505050811b019055565b015160001960f88460031b161c19169055388080613fe4565b80600185968294968601518155019501930190613fcf565b6140276108ee565b613f64565b91909182519283516001600160401b03811161415b575b614057816140518554612682565b85613f0b565b6020948590601f83116001146140de576140a7610a03969784604095600297956140ca956000926140d3575b50508160011b916000199060031b1c19161787555b8301516001600160a01b031690565b6001860180546001600160a01b0319166001600160a01b03909216919091179055565b01519101613f50565b015190503880614083565b90601f198316916140f486600052602060002090565b9260005b818110614144575097600185600297956140ca956140a795604099610a039d9e1061412b575b505050811b018755614098565b015160001960f88460031b161c1916905538808061411e565b9293896001819287860151815501950193016140f8565b6141636108ee565b614043565b6040805161417581610940565b60009384825284549381156142ae576001600160a01b038116600090815260056020526040902080546801000000000000000184020190556000858152600460205260409020600192906001600160a01b038316904260a01b85841460e11b17821790558187019684807fddf252ad1be2c89b69c2b068fc378daa952ba7f163c4a11628f55a4df523b3ef9280858d868180a4015b89810361429f575050501561428f57858755813b61422c575b50505050505050565b85039180805b61424f575b50505050505081540361053857808080808080614223565b15614282575b8661426761079d868487019686612e13565b6142715781614232565b85516368d2bf6b60e11b8152600490fd5b8583106142555780614237565b8451622e076360e81b8152600490fd5b80848c858180a401859061420a565b835163b562e8dd60e01b8152600490fd5b90604051606081018181106001600160401b0382111761430f575b604052604061430a600283956142ef81612773565b855260018101546001600160a01b0316602086015201612773565b910152565b6143176108ee565b6142da565b604051906143298261095b565b600c82526b139bdd081cd95b1958dd195960a21b6020830152565b60208183031261000e578051906001600160401b03821161000e570181601f8201121561000e57805161437681610a05565b926143846040519485610976565b8184526020828401011161000e5761045b91602080850191016103f0565b90612fc5602092828151948592016103f0565b604051906143c282610925565b604082527f6768696a6b6c6d6e6f707172737475767778797a303132333435363738392b2f6040837f4142434445464748494a4b4c4d4e4f505152535455565758595a61626364656660208201520152565b9061441e82610a05565b61442b6040519182610976565b828152809261443c601f1991610a05565b0190602036910137565b805115614518576144556143b5565b61447961447461446f6144688551613553565b6003900490565b613073565b614414565b9160208301918182518301915b8282106144c6575050506003905106806001146144b3576002146144a8575090565b603d90600019015390565b50603d9081600019820153600119015390565b9091936004906003809401938451600190603f9082828260121c16880101518553828282600c1c16880101518386015382828260061c1688010151600286015316850101519082015301939190614486565b5061045b612d0e565b80156145be576000818181805b6145a6575061453c81614414565b935b6145485750505090565b6145519061373b565b90600a90603082820680198211614599575b865185101561458c575b0160f81b6001600160f81b031916841a8584016020015304908161453e565b614594610ca6565b61456d565b6145a1612ffc565b614563565b91506145b3600a91613013565b91048084929161452e565b506040516145cb8161095b565b60018152600360fc1b602082015290565b60ff918060001904600811811515166145fe575b60031b9082821b16901c1690565b614606612ffc565b6145f0565b9060ff9080600019046008118115151661462e575b60031b92831b921b19161790565b614636612ffc565b614620565b61ffff809116806107d092048211811515166130ab570290565b60ff80911661ffff908161271081610bb8848204811185151516614694575b8402160416809203811161468757011690565b61468f612ffc565b011690565b61469c612ffc565b614674565b9060ff8260301c168060ff8316116000146146d057505060ff60301b60005b60301b169060ff60301b19161790565b60ff60301b916146df91613674565b6146c0565b9060ff60301b9060ff808460401c1691600e82808760301c16921614600014614755576147226115e86147168561463b565b61ffff61271091160490565b915b61472e8285613674565b8382169116101561474b57505060301b169060ff60301b19161790565b6146df9250613628565b8161271061ffff611388868204811187151516614778575b860216041691614724565b614780612ffc565b61476d565b9160ff909116600f14906000821561483e57506001915b156148335761ffff6113885b1660ff8460381c1692600014614814576147d46147cc60ff6147da94169283613098565b612710900490565b90613563565b818111156147fc57505060ff60381b60005b60381b169060ff60381b19161790565b60ff60381b9160ff61480f921690613674565b6147ec565b6148286147cc60ff61482e94169283613098565b9061374a565b6147da565b61ffff6107d06147a8565b9161479c56fea26469706673582212202fa173ac474f658411cf795c84d74e8058b614a8db49fa63076fdeb887ca865064736f6c634300080d0033",
    "linkReferences": {}
  },
  "methodIdentifiers": {
    "approve(address,uint256)": "095ea7b3",
    "balanceOf(address)": "70a08231",
    "challengeAFighter(uint16,uint16,address,uint256)": "be252dac",
    "createTournament(uint256,address,uint256)": "07814297",
    "defaultUri()": "d2d99fec",
    "fightChallenge(uint256)": "5d65d957",
    "getApproved(uint256)": "081812fc",
    "getFighterData(uint256)": "5480e562",
    "getMatchHistory(uint256)": "4ce8cd4c",
    "idToFighter(uint256)": "cade4be0",
    "isActive()": "22f3e2d4",
    "isApprovedForAll(address,address)": "e985e9c5",
    "joinTournament(uint256,uint16)": "8ae34383",
    "lastRoundEnd(uint256)": "c72cc055",
    "maxStats()": "bd496440",
    "maxSupply()": "d5abeb01",
    "mint(uint256)": "a0712d68",
    "modifyFighter(uint256,string,address,string)": "381a9fce",
    "name()": "06fdde03",
    "owner()": "8da5cb5b",
    "ownerOf(uint256)": "6352211e",
    "price()": "a035b1fe",
    "publicMintLimit()": "bb485b88",
    "renounceOwnership()": "715018a6",
    "safeTransferFrom(address,address,uint256)": "42842e0e",
    "safeTransferFrom(address,address,uint256,bytes)": "b88d4fde",
    "setApprovalForAll(address,bool)": "a22cb465",
    "setMaxPublicMint(uint256)": "270ab52c",
    "setPublicPrice(uint256)": "c6275255",
    "startNextFight(uint256)": "af5a0c30",
    "supportsInterface(bytes4)": "01ffc9a7",
    "symbol()": "95d89b41",
    "toggleSale()": "7d8966e4",
    "tokenURI(uint256)": "c87b56dd",
    "totalSupply()": "18160ddd",
    "tournamentMatches(uint256,uint256)": "3fbf9201",
    "tournamentRoundWinners(uint256,uint256,uint256)": "7ff3fc05",
    "tournaments(uint256)": "7503e1b7",
    "transferFrom(address,address,uint256)": "23b872dd",
    "transferOwnership(address)": "f2fde38b",
    "withdraw()": "3ccfd60b",
    "withdrawPrize(uint256)": "c20eec7b"
  },
  "id": 19
}